:020000040800F2
:10000000C00700207D010008952500089325000801
:1000100000000000000000000000000000000000E0
:10002000000000000000000000000000992500080A
:100030000000000000000000972500089B25000834
:100040008F0100088F0100088F0100088F01000850
:100050008F0100088F0100088F0100088F01000840
:100060008F0100088F0100088F0100088F01000830
:100070008F0100088F0100088F0100088F01000820
:100080008F0100088F0100088F0100088F01000810
:100090008F0100088F0100088F0100088F01000800
:1000A0008F0100088F0100088F0100088F010008F0
:1000B000B93100088F010008C53100088F01000820
:1000C00000F002F800F04BF80CA030C808382418F3
:1000D0002D18671EA246AB4654465D46AC4201D180
:1000E00000F03DF87E460F3EB6460FCC0126334267
:1000F00000D0FB1A3343A246AB46184754360000E3
:1001000074360000103A02D378C878C1FAD8520782
:1001100001D330C830C101D504680C6070470000BD
:100120000023002400250026103A01D378C1FBD813
:10013000520700D330C100D50B60704710B5642959
:1001400002D100F03DF910BD732902D100F04EFA42
:1001500010BD002010BD1FB51FBD10B510BD00F0B3
:100160005DFA1146FFF7F7FF03F032F800F075FA79
:1001700003B4FFF7F2FF03BC00F07CFA07488047A6
:1001800007480047FEE7FEE7FEE7FEE7FEE7FEE77B
:1001900004480549054A064B70470000A52500089C
:1001A000C1000008C0010020C0070020C0030020DB
:1001B000C0030020FEB5044610460D46184373D018
:1001C000A6468C460020A41A01469D4167D3664688
:1001D000002701243D46B61A9D4102D313463A46F4
:1001E0002124654676462F04360C3E432D0CB61A64
:1001F0009D4104D3150C1B042B4312041034654697
:1002000076462F06360A3E432D0AB61A9D4104D380
:10021000150E1B022B4312020834654676462F0743
:1002200036093E432D09B61A9D4104D3150F1B0113
:100230002B431201241D65467646AF07B6083E43A0
:10024000AD08B61A9D4104D3950F9B002B43920035
:10025000A41C65467646EF0776083E436D08B61A3D
:100260009D411AD392185B41641C16E00018764633
:1002700065464941B71A9D410191009009D36046F6
:10028000B11A98418E468446009801990025401C79
:100290006941DD0752082A435B08641EE6D57246B1
:1002A000634603B0F0BDFFE72046284307D0002097
:1002B000C0430146C046C04622462B46F1E7002017
:1002C0000146F7E70FB47CB50C0009AA009001D0F5
:1002D0000019401E094B7B4469460190089800F0C4
:1002E00052F9002C054603D06946002000F05EF963
:1002F00028467CBC08BC04B018470000DD020000A2
:10030000F8B50E460446002020622046E168884782
:10031000002829D0252802D06268A16820E0E16881
:1003200020460027884705001ED028464138192856
:1003300002D80127FF022035324620462760294691
:10034000FFF7FCFE002808D0012804D0F61DF608AF
:10035000F6000836D9E7361DD7E762682846A16857
:100360009047206A401CCFE7206AF8BD70B50C4664
:100370000546012A05D02878800600D5EA690023C1
:1003800002E0012305E05B1C934202D2E05C0028FE
:10039000F9D1A869E618C01AA861286AC0182862AD
:1003A0002846C046C04604E06A682078A968641CF4
:1003B0009047B442F8D32846C046C04670BD0000FE
:1003C000F7B5002575291068009914A611D0C0460C
:1003D000C046002802DA404211A608E000990968E8
:1003E0008A0701D50FA602E0490704D50EA601250C
:1003F00001E0C046C046009F0024243704E000F01E
:10040000F9F830313955641C0028F8D12B463246B2
:100410002146009800F05AF8FEBD000000000000E0
:100420002D0000002B00000020000000034610B546
:100430000B439B070FD1042A0DD308C810C9121F04
:10044000A342F8D018BA21BA884201D9012010BDC0
:100450000020C04310BD002A03D0D30703D0521C94
:1004600007E0002010BD03780C78401C491C1B1BC2
:1004700007D103780C78401C491C1B1B01D1921E2C
:10048000F1D1184610BD01E004C0091F0429FBD2B8
:100490008B0701D50280801CC90700D0027070470D
:1004A00000290BD0C30702D00270401C491E02294C
:1004B00004D3830702D50280801C891EE3E7002253
:1004C000EEE70022DFE7704770477047FFB504464C
:1004D0000D4681B0243000902168880604D5102292
:1004E000E0699143216000E00120A84201DD471B43
:1004F00000E000270498A1697A191018081AA06171
:100500002078C00602D42046C046C046002608E037
:1005100003986268A168805D9047206A401C761C41
:10052000206204988642F3DB2078C0060AD5204674
:10053000C046C04606E06268A16830209047206A45
:10054000401C206238467F1E0028F4DC07E000983B
:100550006268A168405D9047206A401C206228467E
:100560006D1E0028F3DC2046C046C04620780006F9
:1005700002D5022005B0F0BD0120FBE701694A1C4D
:1005800002610878704700B58FB002910021059193
:100590000549019379440391114604906846FFF799
:1005A000AFFE0FB000BD0000E5FFFFFF0A6810704E
:1005B000521C0A6070470CC908399A4202D2531C77
:1005C0000B601070704710B54369002B02D0C04615
:1005D000C04601E0FFF7CAFE012010BD12780146B7
:1005E00024310A7000224A700122ECE711680022CF
:1005F000D243E8E701468008081A02091018020AE7
:100600001018020C1018C008820012185200891A23
:1006100001E0401C0A390A29FBD27047754600F0F8
:1006200025F8AE46050069465346C008C000854619
:1006300018B020B5FFF7ACFD60BCB6460026002719
:10064000C0C5C0C5C0C5C0C5C0C5C0C5C0C5C0C582
:10065000403D490849008D46704710B50446C046E4
:10066000C0462046FFF784FD10BD000000487047DB
:100670001000002001491820ABBEFEE72600020052
:10068000704772B6FEE70000B0B500282AD00146D8
:1006900024314A78022A27D1046822680E239A431B
:1006A0002260826C15682E4B1D4015602568012262
:1006B00095432560446C1C2525401446AC40056CD0
:1006C0006C60C46C056D6560446D002C05D02568B8
:1006D0001D402560836DC06D58604A700020002267
:1006E0000A70B0BD0120B0BD0422C2630120002207
:1006F0000A70B0BDB0B52521415C02292BD101465D
:10070000243103681A680E24A2431A601C6801226F
:1007100094431C60846C2568114B1D402560446C1B
:100720001C2525401446AC40056C6C60C46C056DFE
:100730006560446D002C05D025681D402560836DE3
:10074000C46D5C6000240C704A70816B002900D07D
:1007500088472046B0BD0421C16301242046B0BDB6
:10076000FFFEFFFFC06B7047B0B5044600F0E6F82F
:100770000546601C02D08E480078041900F0DEF8AF
:10078000401BA042FAD3B0BDF0B58DB00D68002D6E
:1007900000D1CBE00F466649884201D0062200E036
:1007A00005220B21090743180A21CB410093052B91
:1007B00000D30092012400210E4604940C910A916A
:1007C0000B913A460797019017E03943089E5A4A21
:1007D0001160079A15682946E14017460A9A121DCA
:1007E0000A920836641C0C9A921C0C920B9A521CAA
:1007F0000B923A46002900D198E0671E04990997A8
:10080000B9400D40E6D008960695536803261F466A
:1008100037407D1E012D03931AD8104603220594FC
:100820000C9CA2400646019885689543F6680C9C8E
:10083000A640059C2E438660DD06ED0F099EB5405F
:1008400046688E432E434660D5430B994B000EE01D
:1008500031460C988140CD43032F0346019806D1C1
:100860000C9905913746079A089E039B24E0C168BE
:1008700002952940079A95689D400D43C560022F57
:10088000059316D117461C220A990A400F21914060
:10089000099DED08AD0045192E6A8E4339699140D6
:1008A0003A463143019829627B6803271F40089E1E
:1008B00001E0089E039B029D05998F400168294035
:1008C000394301609903890F069F83D01820304077
:1008D0000F2181400325099EAE43164A95192E6EBD
:1008E0008E43009981403143296611680798466814
:1008F000F50201D5394300E0B9430E4A1160516851
:10090000B50201D5394300E0B9430A4A51600A49AA
:100910004968B50301D5394300E0B943064A51603F
:100920001168F20300D550E7B9434FE70DB0F0BDB1
:10093000001400500018024080180240054800686A
:100940007047C0461A48007802490A6810180860C3
:100950007047C046BC01002080B5032000F008F8B5
:10096000002801D0012080BD00F024F8002080BDC7
:1009700070B50F4E31780124002916D005467D2030
:10098000C00002F0ADFD01464348006802F0A8FD3A
:1009900001F01CF9032D08D8002806D10024E043FB
:1009A0002946224600F028F87560204670BDC046F2
:1009B0000000002082B001200107084A13680B43A1
:1009C000136013680B400193019991680143916092
:1009D000916801400091009802B0704758100240A1
:1009E000002805D41F2108400121814001480160F1
:1009F0007047C04600E100E0002805D4032203460A
:100A000093430C4A9A1806E00F220240083A032347
:100A10009A43074BD2188007C00E8901C9B28140A2
:100A2000FF23834010689843084310607047C04616
:100A30001CED00E000E400E070B5032461021B4DF2
:100A40002B680B400126720290421AD193421FD0AC
:100A500028688843104328600F48016832204843C3
:100A60000E4902F03DFD411CB0026A694B1E8B42EB
:100A700002D202401946F8D16969014208D02046E5
:100A800070BDB002834203D02A688A4302432A60C1
:100A90000024204670BDC0460800002040420F00E0
:100AA0000320410201480068084070470070004080
:100AB000F0B581B004462B4F3A68386803213B6893
:100AC0005B063D460C3D2E68360703D4264D2D6847
:100AD0002E0900E02E6855045B0F084031060A0F0E
:100AE0000B2A00D30B226D0E591C032806D00228B6
:100AF00006D0012890001F4A105802E01C4800E070
:100B00001A4802F0EDFC454338680026C003304621
:100B100006D538688002C00E411C284602F0E0FC71
:100B200020603868C001304606D460603868C00074
:100B30000DD4A66001B0F0BD38680001400F411C23
:100B4000284602F0CDFC60603868C000F1D53868F6
:100B5000400F411C284602F0C3FC0646A66001B0C7
:100B6000F0BDC0460C100240941002400024F40076
:100B700000093D00F0360008B0B584B00021E14A1C
:100B8000904200DD96E0421E3F2A00D9CEE0900060
:100B900001A2125808469746990C0008D30D000888
:100BA000890F0008E90D0008890F0008890F000867
:100BB000890F0008FD0D0008890F0008890F000843
:100BC000890F0008890F0008890F0008890F0008A5
:100BD000890F0008110E0008890F0008890F00080E
:100BE000890F0008890F0008890F0008890F000885
:100BF000890F0008890F0008890F0008890F000875
:100C0000890F0008890F0008890F0008890F000864
:100C1000890F0008330E0008890F0008890F0008AB
:100C2000890F0008890F0008890F0008890F000844
:100C3000890F0008890F0008890F0008890F000834
:100C4000890F0008890F0008890F0008890F000824
:100C5000890F0008890F0008890F0008890F000814
:100C6000890F0008890F0008890F0008890F000804
:100C7000890F0008890F0008890F0008890F0008F4
:100C8000890F0008890F0008890F0008890F0008E4
:100C9000890F0008530E0008D14802680321114053
:100CA0004900C0467944898849008F442D01E200FB
:100CB0003101BB00C74A904225DDC74A904255DD4D
:100CC00001225304984200D11EE11304984200D13E
:100CD0001AE1D303984200D078E003200502C04C0B
:100CE000A0682840A84200D11CE15502A84200D1CA
:100CF00020E112029042084600D045E1A06880033E
:100D0000184004B0B0BDB54A904249DC01235A02F4
:100D1000904200D1B1E09A029042084600D033E1FF
:100D2000AF480068C00100D5DCE0CFE0802800D1EA
:100D3000DEE001231A02904248D1A94A10688002DD
:100D4000800F40007844808840008744DD00030025
:100D5000E100E900D0688007084600D414E1D068BB
:100D6000400700D41FE1FA2004B0B0BD01225303B4
:100D7000984200D198E09303984227D103200307BB
:100D80009748006818405307984200D1C0E0120706
:100D9000904200D1D8E00028084600D0F4E068E096
:100DA0000122D302984200D18CE0120390420DD16F
:100DB0008B4A10680001830F8A485B007B449B8844
:100DC0005B009F440300C7008F00E100084604B0A9
:100DD000B0BD834801680907890FC0467944097985
:100DE00049008F449146951F7D4801680906890F87
:100DF0007944097949008F44873C8B15784801680C
:100E00008905890F7944097949008F447D32810B26
:100E1000734801680905890F7944097949008F44AD
:100E2000732877010121C90380688003084004B05A
:100E3000B0BD032002036A4800681040012253033A
:100E4000984265D01203904213D0002808465BD028
:100E50009AE0032002046248006810400122530413
:100E6000984255D01204904203D0002808464BD037
:100E70008AE000F0BDFA04B0B0BDFE4A106800027E
:100E8000800FC04678440079400087443D014149C5
:100E9000D0688007084600D476E0D068400700D4C8
:100EA00081E0FA2004B0B0BDF24A10680001830F5F
:100EB0004C48C0467B441B795B009F440156136538
:100EC000084661E0EB48006880010BD4072000036E
:100ED00045498C680440601E844100F077FAA040C8
:100EE00004B0B0BD01A8FFF7E3FD029804B0B0BDA7
:100EF000E04A10680003800F78440079400087447E
:100F0000033F0745FF01000000F060FA04B0B0BDE8
:100F1000354800684005C1173548084004B0B0BDE9
:100F2000D90335E0304800688003C11731480840D4
:100F300004B0B0BDE0688007084625D5E0684007EA
:100F400031D5FA2004B0B0BD01A8FFF7B1FD01987A
:100F500004B0B0BD244B18688007084614D5186843
:100F6000000724D4D068000922E01F4B18688007CE
:100F7000084609D51868000720D4D06800091EE08B
:100F8000D0688007084608D404B0B0BD0120C10372
:100F900090688003084004B0B0BDD068400702D517
:100FA000FA2004B0B0BD7D20000204B0B0BD1868C6
:100FB0000006000F0B2807D30B2005E01868000679
:100FC000000F0B2800D30B2080000849085804B0FC
:100FD000B0BDC046FF1F0000FF7F0000FF070000FC
:100FE00088100240006CDC0200100240F03600085D
:100FF0000024F40048E80100F0B587B00446012061
:10100000070205900307607800069A4E05D4002079
:1010100004902068C1074AD066E0303E306818402E
:10102000029006D13068184330603068184006904E
:10103000069801960393904E306838433060FFF76E
:101040007DFC05463068384206D1FFF777FC401B2F
:101050000228F7D9032021E0032004900102D84898
:101060000068084012D0216C88420CD0D44B18681C
:10107000059909041A680A431A601A688A431A60B3
:101080007E4908401860C00700D0E4E0CC4A1068F0
:101090007A490840216C01431160002004900298B5
:1010A0000028744E039B18D02068C1071CD181070B
:1010B00022D4C10628D401072FD4410736D4810693
:1010C0003CD4410643D401064AD4384251D181056B
:1010D000059F58D441045FD46DE001990868984396
:1010E00008602068C107E2D031680322914362683A
:1010F0000A4332608107DCD531680C229143A26833
:101100000A433260C106D6D50321890232688A4378
:101110006169114331600107CFD5032109023268AB
:101120008A432169114331604107C8D53168C02223
:101130009143E2680A4332608106C2D50321090364
:1011400032688A43A169114331604106BBD503214E
:10115000090432688A43E169114331600106B4D55C
:101160000321890432688A43216A1143316038427D
:10117000ADD00321090532688A43616A11433160A9
:101180008105059FA6D50321890532688A43A16A96
:101190001143316041040ED5E16B994205D13A0407
:1011A00033467C3B1D6815431D60032212073368DC
:1011B00093430B4333603906FB06C204304A09D41B
:1011C000850419D442052F4A26D4000533D4049847
:1011D00007B0F0BD656B9D4205D1264E7C3E376859
:1011E0000F433760059F234E366816402E43214D2E
:1011F0002E60204E8504E5D5A56B9D4205D1334672
:101200007C3B1E680E431E601A4E336813402B430E
:10121000336042051B4AD8D5E36A8B4205D1354677
:101220007C3D2E680E432E60124E356815401D43DE
:1012300035600005CBD5206B7B06984204D1334640
:101240007C3B1C680C431C603168114001433160D9
:10125000049807B0F0BDFFF771FB0646594D58489A
:101260000068800700D511E7FFF768FB801BA842E4
:10127000F5D914E78810024000700040FFFCFFFF22
:10128000FFFFFFF3FFFFFFFEF0B583B00B46044600
:101290004A4D286807273840884208D22868B84352
:1012A0001843286028683840984200D082E02068BF
:1012B000C1074D4E50D0606804282AD8810001A291
:1012C00051588F46D9120008E5120008F1120008A3
:1012D000FD1200080913000831460839096889071A
:1012E0001BD467E0314608390968490562D514E026
:1012F00031460839096889035CD50EE03146083962
:101300000968890156D508E02D494968890751D5F2
:1013100003E02B49096889074CD50293316801978E
:10132000B943014337463160FFF708FB0646254DB8
:101330003868382101406068C000814207D0FFF75B
:10134000FDFA801BA842F3D9032003B0F0BD20684A
:10135000029B1A4D3E46019F810706D50F210902C7
:1013600032688A43A1681143316029683940994243
:1013700007D92968B9431943296029683940994236
:1013800018D1400705D5380331688143E068084328
:10139000306000F02DF831680905090F0A4A515CE8
:1013A0001F220A40D0400F4908600320FFF7E0FAEF
:1013B00003B0F0BD012003B0F0BDC04600200240E4
:1013C0009010024088130000D636000805480068D7
:1013D000054909684904490F044A515C1F220A4023
:1013E000D04070470800002008100240E636000890
:1013F00010B52A4C201F006838210140206805D014
:10140000182922D10322104001281ED120460C3871
:101410000268120703D427480068000A01E0006848
:1014200000090F22024000230B2A184600D810465C
:101430008000214A12580029104602D1182912D0E2
:1014400010BD18461829FBD10DE0084608380022C7
:10145000272805D8400812A318581829F0D102E00F
:1014600010461829ECD1216803200840216849065C
:10147000490F491C022803D0032802D1104A00E07A
:101480000E4A20684004400E504302F029F82168BB
:10149000490F491C02F024F810BDC0460C10024050
:1014A0000024F40000093D0000000000007D000061
:1014B0000080000094100240F03600080024F40080
:1014C00000093D00F0B589B0F34CA66838210391BE
:1014D0000E40E16803273940049105900078C0066A
:1014E00051D405980078C00711D0102E06D0182EC0
:1014F00000D064E10498032800D060E1FC48006853
:10150000800304D505984068002800D1F3E00598D1
:101510000078800719D5082E06D0182E00D05DE17E
:101520000498022800D059E1F14A10684005059B53
:1015300003D5D868002800D1DDE07F20000651687F
:101540008143186900060843506005980078000739
:10155000F24EE74C6CD4059A1078400700D589E02C
:101560001078800600D5FDE00598C46A0025002C9F
:1015700000D1FEE2DE498868039A1040182800D0A6
:101580008CE10125F5E2002E06D0182E00D099E05E
:101590000498012800D095E020688007059A03D5BB
:1015A000D069002800D1A6E0536A2068000700D562
:1015B000A5E0DA4840680009F0252840834200D9B8
:1015C000A3E020680821014321602068A843184354
:1015D0002060FF20000261688143106A0002084316
:1015E0006060002E00D0B0E20125A06DC00002971F
:1015F00000D530E22807A16D0143A165A16D01402E
:1016000008910898012004071F46FFF749FA3A4657
:10161000B749896DA143B64CA1656902884200D1E2
:1016200021E27F2A00D923E2703A5042504181E200
:1016300005994869002800D1ADE08869411E8841BC
:10164000800071680422914308187060706801215D
:1016500001437160FFF772F905467068800700D595
:1016600079E7FFF76BF9401B1128F6D93D4628466C
:1016700009B0F0BD0297012004900107A06D084059
:10168000019006D1A06D0843A065A06D08400690AA
:1016900006980091A24C2068C00557D40498070210
:1016A000206838432060FFF749F905462068384232
:1016B0004CD1FFF743F9401B0228F7D9029D284679
:1016C00009B0F0BD20680599C969002900D1CFE0B3
:1016D000012108432060FFF731F9054620688007A3
:1016E00000D507E1FFF72AF9401B0228F6D93D464D
:1016F000284609B0F0BD0125284609B0F0BD206894
:10170000F0252840834200D85BE701950125A06DB4
:10171000C00002977FD42807A16D0143A165A16D88
:10172000014007910798012004071F46FFF7B8F909
:101730003A466F49896DA1436D4CA16569028842A3
:1017400070D07F2A00D817E102201AE10598876837
:10175000F80770D1306804998843306030680421FC
:10176000884371E0B0680599896A002900D1F0E0EA
:1017700001210843B060FFF7E1F80546B068800733
:1017800000D5F1E6FFF7DAF8401B0228F6D93D460E
:10179000284609B0F0BD7068012188437060FFF7EA
:1017A000CDF805467068800700D4D4E6FFF7C6F888
:1017B000401B1128F6D93D46284609B0F0BD01204E
:1017C0008304059949680B43052212049342F84C9F
:1017D00000D0F6E022680A432260F8E0F44B186873
:1017E00001218C02059AD2680902002A00D110E179
:1017F00008431860FFF7A2F80546ED48006820424C
:1018000000D037E1FFF79AF8401B0228F5D93D4692
:10181000284609B0F0BD1F46FFF742F93A46690273
:1018200088428ED1812A00D2AAE0B02A029F00D835
:1018300037E10220A6E03068790703D50421084388
:1018400030603068049908433060DE4CFFF776F86A
:101850000546002F3ED0029F3068800762D4FFF714
:101860006DF8401BA042F7D93D46284609B0F0BDAF
:10187000012188432060FFF761F805462068800752
:1018800000D42EE6FFF75AF8401B0228F6D93D4651
:10189000284609B0F0BDC04600100240029701275B
:1018A0003A060868049290430860FFF747F8064636
:1018B000022C00D09DE07C06BD480068204200D18B
:1018C000F3E0FFF73BF8801B0228F5D9029D28467C
:1018D00009B0F0BD029F3068800700D4ACE0FFF78C
:1018E0002DF8401BA042F6D93D46284609B0F0BD70
:1018F0000010024020680821014321602068F02187
:101900008843059A516A01432160FF200002616803
:101910008143106A000208436060E2E590100240D3
:101920000070004030680499CF0205998968090663
:1019300000D5A7E0802188433060306838427ED0EF
:10194000FEF7FCFF401BA042F7D9029D284609B0D4
:10195000F0BD01218843B060FEF7F0FF0546B06896
:10196000800700D400E6FEF7E9FF401B0228F6D905
:101970003D46284609B0F0BD703A5042504100E063
:101980000020029F8B490A6807239A4312180A60B5
:1019900009681940814200D0EBE02068082101432A
:1019A0002160206801998843059A516A01432160AA
:1019B000FF20000261688143106A000208436060F2
:1019C000C3E0236893432360002900D1D4E044049A
:1019D000FEF7B4FF054676480068204200D096E541
:1019E000FEF7ACFF401B6428F5D93D46284609B0F8
:1019F000F0BD7C06029F6E480068204200D1B8E02E
:101A0000FEF79CFF801B0328F5D33D46284609B00E
:101A1000F0BD88431860FEF791FF054664480068F2
:101A2000204200D191E5FEF789FF401B0228F5D93D
:101A30003D46284609B0F0BD3068000667D40198DD
:101A40000028029F5A49059A00D089E5886D009BBD
:101A50009843886584E51F46FFF722F83A466902F5
:101A6000884200D0DDE5812A63D3B02A00D897E010
:101A700002205FE07F2000064D4A516881430598AF
:101A800000695FE580210843306030683842D6D174
:101A9000FEF754FF401BA042F7D9029D284609B02B
:101AA000F0BD902A7AD800206CE7414BD8680397A4
:101AB00045490140059807463037C4CF0097C76BAA
:101AC0000197076C406C0A433243009909021143A5
:101AD0003943029F014301980143D96003980007ED
:101AE000D9680143D9601868049908431860FEF763
:101AF00025FF06462E48006820423AD1FEF71EFF19
:101B0000801B0228F6D93D46284609B0F0BD306852
:101B10008021884330600498C702306838428ED0F4
:101B2000FEF70CFF401BA042F7D9029D284609B0E2
:101B3000F0BD0020029F1F490A6807239A4312182C
:101B40000A6009681940814213D1FFF751FCA1686E
:101B50000905090F184A515C1F220A40D040174955
:101B6000086017480068FEF703FF0546002800D10B
:101B7000B7E4284609B0F0BD4404FEF7DFFE054691
:101B80000B480068204200D1C1E4FEF7D7FE401B9D
:101B90006428F5D93D46284609B0F0BD0120F1E69C
:101BA000902A029F01D80020C5E70120C3E7C04664
:101BB0000010024000200240D63600080800002035
:101BC00004000020881300008C80C111401E010E0B
:101BD00001D0012070470749074A50600748036851
:101BE0000B400321890759180160002090600721EC
:101BF00011607047FFFFFF0010E000E020ED00E003
:101C0000B0B58421415C012901D10220B0BD02465A
:101C100084322421516001680B680C680125AC43B3
:101C20000C606C07A3430B600021416611702020FB
:101C300050600846B0BD704770470000F0B581B0F5
:101C40008422825C012A02D1022001B0F0BD054647
:101C5000683524222A620668376832680124A24364
:101C6000326007225206B36893430B43B360406E61
:101C70000028204615D00097B768B068400F2B4960
:101C8000095C2B4A105CC00001F02AFC04463801B4
:101C9000009F400F2549095C254A105CC00001F0F7
:101CA0001FFC28806C803760002028772021296263
:101CB00001B0F0BDF0B581B08422825C012A02D16E
:101CC000022001B0F0BD0546683524222A6206686C
:101CD000376832680124A243326007225207B36892
:101CE00093430B43B360406E0028204615D0009705
:101CF000B768B068400F0D49095C0D4A105CC00020
:101D000001F0EEFB04463801009F400F0749095CD3
:101D1000074A105CC00001F0E3FB28806C8037604C
:101D2000002028772021296201B0F0BD403700084B
:101D30003837000870477047B0B50446EFF310819C
:101D4000012080F310880922520123681D68954301
:101D50001D6081F31088EFF3108180F310882268F2
:101D60009368224D1D40956081F31088E16E012932
:101D70000AD1EFF3108180F31088226813681025D0
:101D8000AB43136081F3108825468035216889684C
:101D900049061CD5EFF3108180F310882068826813
:101DA00040239A43826081F31088286800280ED06F
:101DB00000218163FEF768FC002808D02868FEF740
:101DC000D1FC202803D1102028610320B0BD21467A
:101DD0005E310020088021680F220A628A69082388
:101DE00013438B612021E960E066B0BDFEFFFFEF89
:101DF00070470000F0B589B004460068C76920212B
:101E00000126F20213462F333B40056806945C34EA
:101E1000079404468068202B0896059110D12B4624
:101E20000B4036070640F31829463A4600D1CAE06F
:101E30000698416F002900D1BAE1884709B0F0BD8A
:101E400004920F32174229463A4600D1BBE0D94BE3
:101E50000B40089E35076E1C0640F31800D1B2E017
:101E60000295D307089D274607D02B020B4004D0CC
:101E70003D62079C636B2B436363019003462B40D9
:101E8000950704980ED5002B0CD002253D62079DC6
:101E90006C6B03942C4604253846039F3D4307464C
:101EA00004986563550708D5002B06D004233B62D0
:101EB000079B5C6B022525435D63130703910BD5DC
:101EC0000B4605990B4003991E4305D008233B623E
:101ED000079E756B1D437563024209D0089B9B06E4
:101EE0000B4005D03862079D6B6B05990B436B6304
:101EF000079E736B002B069D00D159E105990A409E
:101F00000CD0039A0A40019C02980440144305D067
:101F1000696F002902D0284688472F68716B2822F4
:101F20000A40B96840200140891800D11DE1EFF353
:101F30001081089F87F31088092252012B681C68C2
:101F400094431C6081F31088EFF3108187F31088AD
:101F50002A689368984C1C40946081F31088E96E5D
:101F600001290BD1EFF31081089A82F310882A68B7
:101F700013681024A343136081F31088059931631B
:101F80000021E966696729688968490600D4E7E0A5
:101F9000EFF31081089A82F310882A6893688343CC
:101FA000936081F31088706A002800D1D8E08349DB
:101FB0008163FEF79FFB002800D1F9E0706A816B16
:101FC000884709B0F0BD0E461640F306069DEB6E3D
:101FD00042D5012B40D110222262A0684006079F03
:101FE00049D4788839887B88002B00D1E0E0081A32
:101FF000010400D1DCE0EFF31081089E86F3108825
:1020000009235B012C680490284625689D432560C0
:1020100081F31088EFF3108186F3108803689C68C1
:10202000654D25409D6081F3108805993963002135
:102030004167C166EFF3108186F3108803681C685E
:1020400094431C6081F3108802210167049989B2CE
:10205000FFF7F1FD09B0F0BDD302079F56D5089BED
:102060009B05034052D00899090521622846FFF7D5
:1020700062FE09B0F0BD3888796A0B685C68A1B26D
:102080000029089E60D081425ED27C801968890652
:1020900032D4EFF3108086F31088494920312B6841
:1020A0001C680C401C6080F31088EFF3108086F3EE
:1020B000108829688B68B3438B6080F31088EFF336
:1020C000108086F3108829688B684024A3438B60B6
:1020D00080F31088059838630020E866EFF31080DD
:1020E00086F3108829680B6893430B6080F310888F
:1020F000786AFEF7C9FA3888022129677988401A78
:1021000081B22846FFF797FD09B0F0BD04461006DE
:102110000DD580200840089BDB051C40201806D008
:10212000A96F002944D02846884709B0F0BD700641
:1021300022D4100235D508988007084031D02846AF
:10214000FFF7F8FD09B0F0BD884231D1186880066C
:102150002ED5022028672846FFF76DFD09B0F0BD97
:102160002846FFF745FE09B0F0BD2846FFF740FEC0
:102170000020706309B0F0BDEFF31080089981F37F
:10218000108829680A6840239A430A6080F31088FF
:102190000020A8670598F862284600F0F9F909B010
:1021A000F0BDD00104D5002902D52846FFF744FD33
:1021B00009B0F0BD20010004FEFFFFEF7927000801
:1021C000DFFEFFFFB0B5002830D004460546843559
:1021D0006868002804D100202870204600F028F804
:1021E00024206860206801680125A9430160A06A75
:1021F000002802D0204600F0F1F9204600F06CFDE6
:10220000012811D00920C00221684A6882434A602F
:1022100088682A22904388600868012202430A6085
:10222000204600F045FA05462846B0BD0120B0BD65
:10223000B0B598B0054600241794169415941494DC
:10224000139402A84421FEF73CF9286867498842A4
:1022500022D02A4988424FD104940220029002A839
:10226000FEF7CAFE002801D0FEF70BFA0120410458
:10227000234AD3680B43D360D3680B400193019981
:102280001168014311601168014001910C20139005
:1022900001981C2507201DE001256804029002A872
:1022A000FEF7AAFE002801D0FEF7EBF9E804144976
:1022B000CA680243CA60CA6802400192019808686D
:1022C0002843086008682840019003201390019873
:1022D0001E250820179016941594022014900520AE
:1022E000000713A9FEF750FA284621462246FEF7BA
:1022F00083FB2846FEF774FB18B0B0BD00440040D5
:102300004C100240F0B581B08C23C358202B2DD146
:102310000124002927D0002A25D001231C03856829
:10232000A54204D10469002C01D1CC0722D100249C
:10233000C4660568114EB54213D0114EB54210D097
:10234000104EB5420DD06D682D020AD5EFF3108501
:1023500083F310889B06066837681F43376085F350
:10236000108800F0CDFD204601B0F0BD02242046CB
:1023700001B0F0BD1C46204601B0F0BD0080004019
:1023800000840040008C0040B0B5006817498842C6
:1023900000D0B0BD164DA8780A2808D00D2817D156
:1023A00000202870E81C2021FEF789F817E0EC1CBB
:1023B00010A106222046FEF739F8002801D101209D
:1023C00068700020287020212046FEF778F806E08B
:1023D00029781E2903D86A18D070481C2870A91CB7
:1023E00006480122FFF78EFFB0BDC046004C0040FA
:1023F0007000002053544152540000002801002076
:10240000F0B585B0044688202058202836D10F46E4
:102410000120002900D1B7E01646002A00D1B3E020
:1024200001200203A168914205D12169002902D14E
:10243000F90700D0A8E00493254654350020029007
:10244000E863212068630192FEF778FA03906E80BA
:102450002E80A0680199884227D1206900283B4638
:10246000049A44D1002845D06888002822D0501C06
:10247000464E44D0002A58D120680DE0022005B015
:10248000F0BD1988314081629B1C00276988491E74
:102490006980698800290ED0C169090668D5002FB6
:1024A000EFD0397881627F1CF0E7049A029B68883C
:1024B0000028DCD12068C169490606D4002A5ED014
:1024C000511C0CD1C1694906FCD52020686300204D
:1024D00005B0F0BD20680168C0694006F5D4FEF77C
:1024E0002DFA0399401A04998842F3D949E0002350
:1024F0000028B9D1074668880028B8D1DAE72068F3
:102500000AE01988314081629B1C00276988491EB6
:10251000698069880029CED0C1690906FCD5002FE1
:10252000EFD0397881627F1CF0E702932068C1699F
:10253000090609D4FEF702FA049A0399401A904258
:1025400018D820680168F2E7002F03D0397881623B
:102550007F1C06E0029B1988314081629B1C02931C
:1025600000276988491E698069880029DFD1A2E7B0
:10257000FEF7E4F920206863032005B0F0BDFEF704
:10258000DDF920206863032005B0F0BDFF010000E5
:102590007047FEE7FEE77047704780B5FEF7D2F957
:1025A00080BD00000120C106094A116009490B687D
:1025B00009490A6ADB0304D5D2B2AA2A01D0CC2A7F
:1025C00000D1704780040A6802430A607047C04621
:1025D00008ED00E08020024000200240B0B5816A92
:1025E0000A070CD4CA0714D18A071CD44A0724D47A
:1025F000CA062CD48A0634D44A063CD44CE00122C4
:10260000D20303685C689443826B22435A60CA0712
:10261000EAD00122520403685C689443C26A2243F0
:102620005A608A07E2D50122120403685C68944369
:10263000026B22435A604A07DAD5012292040368EA
:102640005C689443426B22435A60CA06D2D5012289
:10265000120303689C689443C26B22439A608A0603
:10266000CAD50122520303689C689443026C22433A
:102670009A604A0610D501221305026854689C43EB
:10268000456C2C4354609D4206D103235B0554687E
:102690009C43836C23435360090607D50121C90479
:1026A000026853688B43C06C18435060B0BD000093
:1026B000F0B583B004469020002626502746843784
:1026C000FEF73CF903462068016809071FD5294831
:1026D0000090012002904105002220461D4600F096
:1026E000A9FC002811D0EFF31080029981F3108823
:1026F00021680A6880239A430A6080F310882020AA
:10270000786003203E7003B0F0BD20682B4600685F
:10271000400725D5174800900125A905002220462D
:1027200000F088FC00281BD0EFF3108085F31088A0
:1027300009214901226813688B43136080F31088D4
:10274000EFF3108085F3108821688A68AA438A60B5
:1027500080F310882020B86003203E7003B0F0BDE5
:1027600020207860B860E666266730463E7003B089
:10277000F0BDC046FFFFFF0180B5806A5E210022E8
:102780004252FFF735FB80BDF0B581B06021425A5F
:102790008C214158036822290FD101465C315B6AC4
:1027A0001A40836D1A804A88521E4A809A1C82659C
:1027B0004A88002A07D001B0F0BD9869082101437A
:1027C000996101B0F0BDEFF31083012282F310880C
:1027D0000924640105682E68A6432E6083F31088DF
:1027E000EFF3108382F310880468A5689543A56011
:1027F00083F3108820230B63002343670367046877
:10280000C04DAC4213D0C04DAC4210D0BF4DAC4215
:102810000DD0646824020AD5EFF3108482F3108887
:10282000950606683768AF43376084F31088C46E36
:10283000012C15D1C366EFF3108382F3108804686E
:10284000256810229543256083F310880368DC69AE
:10285000E40600D51A620988FFF7EDF901B0F0BD72
:10286000FFF792FD01B0F0BDF0B585B004466020E1
:10287000205A04902068C7690168029185688C21FC
:10288000615822294DD126465C3601200390B0893B
:10289000002800D198E003980540010202980191B8
:1028A0000840029002E0708800283FD0B80600D4AB
:1028B0008AE02068416A049A1140A26D11807188F3
:1028C000491E7180911CA165C7697907EBD00299F7
:1028D000002908D03946039A114004D0039A0262B5
:1028E000716B114371630221002D07D03A460A40F3
:1028F00004D00162726B042313437363002D07D06D
:1029000004223B46134003D00262706B084370639D
:10291000706B0028C7D02046FFF76AFA002070636A
:10292000C1E7816908220A43826175E0EFF31080F4
:10293000039B83F3108821680A68019DAA430A60FB
:1029400080F31088EFF3108083F3108821688A6881
:10295000DD4B13408B6080F3108820203063002013
:10296000606720672168D94A914214D0D84A9142C1
:1029700011D0D84A91420ED0496809020BD5EFF325
:102980001081039A82F31088920623681D6895438C
:102990001D6081F31088E16E012937D1E066EFF305
:1029A0001081039880F310882268136810208343F5
:1029B000136081F310882168CA69D20600D50862C5
:1029C00031882046FFF737F97088002824D0B18974
:1029D000884221D2EFF31080039D85F31088BA4915
:1029E000491C226893680B40936080F310880B4861
:1029F0006067EFF3108085F3108821680A68202350
:102A000013430B6080F3108805B0F0BD2046FFF73C
:102A1000BBFC70880028DAD105B0F0BD892700081A
:102A2000F0B581B06021435A8C21415802682229B7
:102A300010D101465C31526A1A40836D1A704A887F
:102A4000521E4A80826D521C82654A88002A07D035
:102A500001B0F0BD906908210143916101B0F0BD62
:102A6000EFF31083012282F31088092464010568C2
:102A70002E68A6432E6083F31088EFF3108382F351
:102A800010880468A5689543A56083F31088202307
:102A90000B6300234367036704688C4DAC4213D07B
:102AA0008B4DAC4210D08B4DAC420DD064682402EB
:102AB0000AD5EFF3108482F310889506066837680C
:102AC000AF43376084F31088C46E012C15D1C36600
:102AD000EFF3108382F31088046825681022954371
:102AE000256083F310880368DC69E40600D51A6268
:102AF0000988FFF7A0F801B0F0BDFFF745FC01B071
:102B0000F0BDC0460080004000840040008C0040C2
:102B1000F0B585B004466020205A04902068C7694B
:102B20000168029185688C21615822294FD126467F
:102B30005C3601200390B089002800D19AE0039808
:102B400005400102029801910840029002E070885D
:102B5000002841D0B80600D48CE02068406A04996F
:102B60000840A16D08707088401E7080A06D401CE8
:102B7000A0652068C7697907E9D00299002908D0C3
:102B80003946039A114004D0039A0262716B1143D3
:102B900071630221002D07D03A460A4004D0016239
:102BA000726B042313437363002D07D004223B464A
:102BB000134003D00262706B08437063706B00288F
:102BC000C5D02046FFF714F900207063BFE7816984
:102BD00008220A43826175E0EFF31080039B83F3C0
:102BE000108821680A68019DAA430A6080F3108852
:102BF000EFF3108083F3108821688A68324B13400A
:102C00008B6080F31088202030630020606720678D
:102C10002168AC4A914214D0AB4A914211D0AB4AE0
:102C200091420ED0496809020BD5EFF31081039A47
:102C300082F31088920623681D6895431D6081F316
:102C40001088E16E012937D1E066EFF31081039817
:102C500080F310882268136810208343136081F387
:102C600010882168CA69D20600D5086231882046DA
:102C7000FEF7E1FF7088002824D0B189884221D274
:102C8000EFF31080039D85F310880F49491C2268DB
:102C900093680B40936080F31088E4486067EFF31B
:102CA000108085F3108821680A68202313430B6085
:102CB00080F3108805B0F0BD2046FFF765FB7088F3
:102CC0000028DAD105B0F0BDFEFFFFEF0080004024
:102CD00000840040008C0040F0B581B004460068DC
:102CE0000168774A0A40A16823690B436169194367
:102CF000E5692943114301600326310342688A4391
:102D0000E16811434160A2696E49884205D06E4B6B
:102D1000984202D06D4B984201D1134601E0236ADC
:102D200013432246683200928268694F17401F435E
:102D30008760C26A0F239A43636A1343C362012701
:102D4000644A904232DD644A904256DC88427CD02C
:102D50005D49884200D096E00820FDF70DFF00286D
:102D600000D18DE0616A4900604A515A00F0B8FB19
:102D7000626856430125B04200D295E011038842B3
:102D800000D993E0010E530800020026C0187141DB
:102D90003346FDF70FFA56494118564A9142009AB8
:102DA00000D984E02168C860354680E04C498842FB
:102DB00051D04C49884255D04B49884263D10120BB
:102DC0004004FDF7D9FEF9038D4222D000250028EA
:102DD00060D0616A4900454A515A00F081FB616840
:102DE0004A08101800F07CFB01461039424A914213
:102DF00054D22168C860009A59E03449884239D0D9
:102E00003649884238463ED1FDF7B6FEF9038D4279
:102E1000DCD1002500283FD0616A4900334A515A6D
:102E200000F05EFB400061684A08101800F058FB93
:102E30000246103A30498A4233D201400007400F1F
:102E400008432168C860009A31E01020FDF794FE25
:102E5000002887D114E00220FDF78EFEF9038D4291
:102E6000B4D1D6E724481030FDF786FEF9038D4231
:102E7000CFD0ABE70420FDF77FFE002800D071E73C
:102E80000025009A13E00020FDF776FEF9038D423D
:102E9000BFD09BE7009A0AE0009A08E00125009A5B
:102EA00005E00125009A02E0009A00E0009A13482C
:102EB000106000206067A067284601B0F0BDC046E2
:102EC000F369FFCF0080004000840040008C004088
:102ED000FFF4FF11FF7F0040FF8B004000380140EE
:102EE0000044004000480040004C004020370008EB
:102EF00000FDFFFFFFFC0F00F0FF000001000100DC
:102F000070B55C23C25281650021416703465C3382
:102F10005A808468002C0BD001252E07B4420CD0B7
:102F20002D03AC420ED10469002C04D13C4C0CE0C2
:102F30000469002C08D1FF2407E00469002C03D0A9
:102F40003F2402E0998001E07F249C805963222184
:102F50001963EFF31084012181F310880568AE68CE
:102F60000E43AE6084F310884C07456EA54202D133
:102F70009B8993421CD902690B0384689C4204D14B
:102F8000002A1FD0294A426703E0284B4367002AE2
:102F90001AD0EFF3108281F31088090200680368E9
:102FA0000B4320211943016082F31088002070BD7B
:102FB00002690B0384689C4213D1002A21D0194A6C
:102FC000426712E01A4A4267EFF3108281F31088D9
:102FD0000068016820230B43036082F310880020FF
:102FE00070BD104B4367002A0DD0EFF3108281F3C0
:102FF00010880B02046825681D43256082F3108841
:1030000001E0094A4267EFF3108281F31088090753
:10301000006883680B43836082F31088002070BDD2
:10302000FF010000112B000869280008212A000870
:1030300089270008F0B587B01D4616460F4603687D
:10304000D9693940C91B4A424A410021B2420FD1D5
:103050000C9C002C0FD00591611C11D1D96939400D
:10306000C91B4A424A41B242F8D0059807B0F0BDA8
:10307000084607B0F0BDFDF761FC032007B0F0BDC6
:1030800001468431029101210191C9020491069007
:10309000039506E0C9693940CA1B51425141B1420A
:1030A000E3D1FDF74BFC411B0323A14248D806980E
:1030B00001680A685207EDD5402FEBD0802FE9D088
:1030C000CA6912073FD4CA69049D2A42039DE1D010
:1030D0001E4604980862EFF31082012181F31088E4
:1030E00009235B010698046825689D43256082F3E7
:1030F0001088EFF3108281F31088069803689C68AB
:103100002C4D25409D60069882F31088C26E012ADE
:103110000BD1EFF3108281F3108801680B68102443
:10312000A3430B60069882F310882021029B9960CC
:103130000022C26642671A70D960304607B0F0BDFF
:10314000184607B0F0BD08250D62EFF31081019815
:1031500080F3108809225201069B1B681C68944367
:103160001C6081F31088EFF3108180F31088069AB9
:10317000126893680F4C1C40069B946081F3108882
:10318000D96E01290CD1EFF31081012282F310884E
:103190001A6813681024A3431360069B81F31088F8
:1031A0002021029A91600021D96659671170D5607B
:1031B00007B0F0BDFEFFFFEF80B5AF48FEF71AFE87
:1031C00080BDC04680B5AA48FEF714FE80BDC0464B
:1031D000D6B0FDF7C1FB16AE301D4821FDF771F9E1
:1031E0000024119410940F940E940125A802FDF769
:1031F00023FCA807279068062690680425900620DF
:103200002490239402202290219040211A912F0291
:10321000199716903046FEF755F9002801D072B67E
:10322000FEE7119403260F9607200E90E8021090F7
:103230000EA82946FEF728F8002801D072B6FEE74E
:10324000039605971A9419948848016829430160E8
:10325000006828400E9018941794680216900E98F3
:103260000520000716A9FDF78FFA81480C27E121F8
:103270004E02804942C0046044608460C7600461BB
:1032800044618461C46104620838FEF79BFF002832
:1032900001D072B6FEE776480021FEF70BFD00284C
:1032A00001D072B6FEE7724800252946FEF7C6FC3B
:1032B000002801D072B6FEE76D48FEF7A1FC002899
:1032C00001D072B6FEE71E24204629462A46FDF7A5
:1032D00093FB2046FDF784FB6748684942C00560C0
:1032E00045608560C760056145618561C5610562AE
:1032F0000838FEF767FF002801D072B6FEE75E4887
:103300000021FEF7D7FC002801D072B6FEE75A482C
:1033100000210291FEF792FC002801D072B6FEE770
:103320005548FEF76DFC002801D072B6FEE7544CFC
:10333000A11C4F48012204910192FEF7E3FF574F71
:103340001AE016AC204605993A4661A3FCF7BAFF8D
:103350000546474E3046FEF7EFFCAAB264233046DE
:103360002146FFF74DF8012230460499FEF7CAFFC7
:10337000434C6420FDF7F8F960780028F9D00298F2
:103380006070019D0EAC202120463EA22B46FCF72A
:1033900099FF16AE304605993A462346FCF792FF50
:1033A0000446334F3846FEF7C7FCA2B264233846C2
:1033B0003146FFF725F8012238460499FEF7A2FFAF
:1033C0003748FDF7D1F9032D25D106AC2021204641
:1033D0003AA22B46FCF776FF16AE304605992F4AE7
:1033E0002346FCF76FFF04463846FEF7A5FCA2B261
:1033F000642338463146FFF703F801223846049922
:10340000FEF780FF0598F430FDF7AEF90398032D21
:10341000224F26D195E706AC2021204621A22B463B
:10342000FCF750FF16AE304605991C4A2346FCF7C0
:1034300049FF04463846FEF77FFCA2B264233846B3
:103440003146FEF7DDFF012238460499FEF75AFFA8
:103450000598F430FDF788F9681C032D0F4F00D153
:103460006FE7072805468DD36BE7C0464C10024036
:1034700028010020004C004094000020004400403F
:10348000700000205363656E6172696F20256420AF
:10349000636865636B696E672E2E2E0048370008DF
:1034A000B80B00005363656E6172696F202564205C
:1034B0006973207375636365737300005363656E8E
:1034C0006172696F202564206973206661696C00F0
:1034D000546573742073746F70706564210000000C
:1034E00043088B421AD3002203098B4279D3030A83
:1034F0008B425ED3030B8B4242D3030C8B4227D308
:103500000902FF2212BA030C8B4202D312120902E3
:1035100003D0030B8B4233D31AE0D3E0411A80412E
:10352000401C704703460B4371D443088B42F5D3CC
:10353000002203098B4254D3030A8B4239D3030B75
:103540008B421DD3030C8B4202D394466EE0090AD2
:10355000C30B8B4201D3CB03C01A5241830B8B4266
:1035600001D38B03C01A5241430B8B4201D34B034F
:10357000C01A5241030B8B4201D30B03C01A5241B4
:10358000C30A8B4201D3CB02C01A5241830A8B4239
:1035900001D38B02C01A5241430A8B4201D34B0222
:1035A000C01A5241030A8B4201D30B02C01A524186
:1035B000CDD2C3098B4201D3CB01C01A524183093A
:1035C0008B4201D38B01C01A524143098B4201D374
:1035D0004B01C01A524103098B4201D30B01C01A9F
:1035E0005241C3088B4201D3CB00C01A5241830819
:1035F0008B4201D38B00C01A524143088B4201D346
:103600004B00C01A5241411A524110007047CA0F74
:1036100000D04942031000D34042534000229C4650
:1036200003098B422DD3030A8B4212D38901FC225A
:1036300012BA030A8B420CD3890192118B4208D330
:10364000890192118B4204D3890137D0921100E095
:103650008909C3098B4201D3CB01C01A52418309A6
:103660008B4201D38B01C01A524143098B4201D3D3
:103670004B01C01A524103098B4201D30B01C01AFE
:103680005241C3088B4201D3CB00C01A5241830878
:103690008B4201D38B00C01A5241D9D243088B42CE
:1036A00001D34B00C01A5241411A00D20146524187
:1036B000104663465B1000D34042704763465B1080
:1036C00000D3404201B50021004201D0C943084661
:1036D000C046C04602BD000000000000000001021C
:1036E00003040607080900000000010203040000AB
:1036F000A0860100400D0300801A060000350C0072
:1037000040420F0080841E0000093D0000127A0034
:103710000024F40000366E010048E801006CDC0271
:10372000010002000400060008000A000C0010005E
:10373000200040008000000101010103070100009A
:1037400008040204080101010D25730A00000000AD
:10375000703700080000002010000000040100087D
:103760008037000810000020B0070000200100088A
:10377000010000000400000000093D0000000000FE
:04000005080000C12E
:00000001FF
